:100000000C944A000C94D4020C94A9020C9469003C
:100010000C9469000C9469000C9469000C946900BC
:100020000C9469000C9419020C9469000C946900FA
:100030000C9469000C9469000C9469000C9469009C
:100040000C9469000C9469000C9469000C9469008C
:100050000C9469000C9469000C9469000C9469007C
:100060000C9469000C9469000C9469000C9469006C
:100070000C9469000C9469000C9469000C9469005C
:100080000C9407030C9469000C9469000C946900AB
:100090000C94690011241FBECFEFD0E1DEBFCDBFAD
:1000A00015E0A0E0B1E0E8EBF5E800E00BBF02C02E
:1000B00007900D92A632B107D9F716E0A6E2B5E097
:1000C00001C01D92A23CB107E1F70E94B1030C945C
:1000D000DA420C940000DF93CF93CDB7DEB72997B7
:1000E0000FB6F894DEBF0FBECDBF1D820E94DA2F7F
:1000F00080912A058F5F80932A05A1E3B0E0E1E3B8
:10010000F0E08081877F8C9380912705882309F414
:1001100045C08091DE059091DF059C0140E050E0F4
:1001200080917D0590917E05A0917F05B09180051D
:10013000820F931FA41FB51F20912A05222F30E0A4
:1001400040E050E0BC01CD010E949D42DA01C901AE
:100150009987888780916E0690916F069C0140E098
:1001600050E08091420690914306A0914406B091E0
:100170004506820F931FA41FB51F20912A05222F29
:1001800030E040E050E0BC01CD010E949D42DA0128
:10019000C9019F838E830E948A1F0CC08091DE0557
:1001A0009091DF059987888780916E0690916F0600
:1001B0009F838E8310922A050E94741580932705D1
:1001C00080912705882349F00E944E168D838091E7
:1001D0002705863011F40E94FE1A88859985909330
:1001E000A8058093A7058E819F8190931A0680931E
:1001F000190681E090E09A83898318C049815A8169
:1002000089819A81880F991FFC01E15EF94F208155
:100210003181CA01880F991FFC01EF57FA4F3183D2
:10022000208389819A8101969A83898389819A8121
:10023000873091051CF380915905843111F40E9497
:10024000A121809159058F5F8093590580912605E2
:10025000882309F457C0E9E2F0E08081882F90E01C
:1002600082709070009761F181E08093150681E0C3
:10027000809312060E941A14882F90E0880F991F0D
:10028000FC01E15EF94F808191812EE0893D92076A
:1002900088F0809100018C3369F4809128058823CF
:1002A00029F40E94A61B81E0809328050E94C01FAC
:1002B00010920001809100018F5F809300010BC0BC
:1002C000AEE2B0E0EEE2F0E0808180618C931092CB
:1002D00026051092280580911806813099F40E9415
:1002E0001A14882F90E0880F991FFC01E15EF94FE6
:1002F0008081918120E18633920720F488EE93E09B
:100300000E94AE2E80912905853021F40E949A2802
:1003100010922905809129058F5F809329050E94FD
:100320004E120E94A02E29960FB6F894DEBF0FBE83
:10033000CDBFCF91DF910895DF93CF9300D0CDB79C
:10034000DEB780912705882309F46EC00E94DA2F5A
:100350000E944E1681E090E09A83898323C04981F0
:100360005A8189819A81880F991FFC01E155FA4FC2
:100370002081318189819A81880F991FFC01E15E7A
:10038000F94F80819181280F391FCA01880F991F69
:10039000FC01E155FA4F3183208389819A810196CE
:1003A0009A83898389819A8187309105C4F28091EB
:1003B0006E0690916F069C0140E050E080914206ED
:1003C00090914306A0914406B0914506820F931F79
:1003D000A41FB51F8093420690934306A093440642
:1003E000B09345068091DE059091DF059C0140E0C9
:1003F00050E080917D0590917E05A0917F05B091A0
:100400008005820F931FA41FB51F80937D059093D5
:100410007E05A0937F05B093800580912A058F5FAC
:1004200080932A050E94A02E0F900F90CF91DF910C
:1004300008951F920F920FB60F9200905B000F92DB
:1004400011242F933F934F935F936F937F938F93D9
:100450009F93AF93BF93EF93FF93DF93CF93CDB76A
:10046000DEB7E3EBF0E082E38083F8948091160638
:100470009091170688539F4F909317068093160606
:10048000809116069091170623E0883E920709F0A6
:100490003FC01092170610921606809177068F5F64
:1004A000809377068091E0059091E1050196909305
:1004B000E1058093E00580917106909172060196A6
:1004C00090937206809371060E946B00809177066C
:1004D0008C3301F51092770680917C058F5F8093B5
:1004E0007C0580917C058C33A9F410927C05809169
:1004F00070068F5F8093700680917006883151F48A
:10050000109270068091D1058F5F8093D10502C053
:100510000E949C01E6EBF0E08081882F90E08270E1
:1005200090700097B9F7CF91DF91FF91EF91BF9154
:10053000AF919F918F917F916F915F914F913F917B
:100540002F910F9000925B000F900FBE0F901F90A5
:1005500018951F920F920FB60F9200905B000F92AA
:1005600011248F93AF93BF93EF93FF93DF93CF93B8
:10057000CDB7DEB7F894AEE2B0E0EEE2F0E0808115
:100580008F7E8C9381E080932605CF91DF91FF9140
:10059000EF91BF91AF918F910F9000925B000F9000
:1005A0000FBE0F901F9018951F920F920FB60F92CB
:1005B00000905B000F9211242F933F934F935F9312
:1005C0006F937F938F939F93AF93BF93EF93FF931B
:1005D000DF93CF93CDB7DEB7F8940E9472321092BA
:1005E0001506CF91DF91FF91EF91BF91AF919F9150
:1005F0008F917F916F915F914F913F912F910F90CC
:1006000000925B000F900FBE0F901F9018951F92E5
:100610000F920FB60F9200905B000F9211242F9350
:100620003F934F935F936F937F938F939F93AF937A
:10063000BF93EF93FF93DF93CF9300D0CDB7DEB797
:100640000E94DC3C282F30E03A83298389819A81FB
:100650008233910539F129813A8123333105D9F16A
:1006600089819A818133910509F057C08091D6051F
:100670009091D705A091D805B091D9050097A10513
:10068000B10519F00E94FD2854C000D0EDB7FEB7A7
:10069000319681E091E0918380830E94393D0F90F3
:1006A0000F9047C01092D6051092D7051092D8052A
:1006B0001092D9051092E1051092E00500D0EDB737
:1006C000FEB7319682E191E0918380830E94393DAB
:1006D0000F900F902EC02091D6053091D7054091F4
:1006E000D8055091D90500D000D000D0EDB7FEB7A5
:1006F000319684E291E09183808322833383448323
:1007000055830E94393D2DB73EB72A5F3F4F0FB644
:10071000F8943EBF0FBE2DBF0CC000D0EDB7FEB7A2
:10072000319689E291E0918380830E94393D0F9058
:100730000F900F900F90CF91DF91FF91EF91BF91AC
:10074000AF919F918F917F916F915F914F913F9169
:100750002F910F9000925B000F900FBE0F901F9093
:100760001895DF93CF9300D0CDB7DEB7F89481E032
:100770008093C00683E040E056E960E070E00E94AC
:100780009D3BA9ECB0E0E9ECF0E0808180688C93BF
:10079000ADE2B0E0EDE2F0E0808180618C93AEE20A
:1007A000B0E0EEE2F0E080818F7E8C930E94132D0A
:1007B0000E948A1F1092AB051092AC051092AD05F5
:1007C0001092AE051092D2051092D3051092D40566
:1007D0001092D50584E1809359050E947A241092E5
:1007E0007206109271060E94F83681E090E09A83BA
:1007F00089830EC089819A81880F991FFC01E65A6E
:10080000FA4F1182108289819A8101969A83898395
:1008100089819A81873091056CF30E94A5310E94ED
:10082000553180917406482F50E080911C06282F86
:1008300030E000D000D000D0EDB7FEB731968BE3AA
:1008400091E09183808353834283358324830E9484
:10085000393D8DB79EB706960FB6F8949EBF0FBE72
:100860008DBF88EE93E00E94AE2E82E08093150645
:1008700082E080931206AEE2B0E0EEE2F0E080812A
:1008800080618C93A0E3B0E0E0E3F0E080818860D9
:100890008C93AAE2B0E0EAE2F0E080818F7B8C9357
:1008A000AAE2B0E0EAE2F0E080818F7D8C93ABE2D7
:1008B000B0E0EBE2F0E0808180648C93ABE2B0E0EA
:1008C000EBE2F0E0808180628C938DE70E94B807B4
:1008D0000E949404E9E2F0E08081882F90E080712A
:1008E0009070009741F4A3E5B0E0E3E5F0E080818B
:1008F000817F8C9308C0A3E5B0E0E3E5F0E0808160
:10090000817F86608C93A3E5B0E0E3E5F0E0808131
:1009100081608C9378948895A3E5B0E0E3E5F0E0FE
:1009200080818E7F8C93D6CFDF93CF9300D00F92B0
:10093000CDB7DEB71B821BC0EDEEF0E08B81829558
:10094000807F80838EEE90E09A83898308C0E9815E
:10095000FA81108289819A8101969A83898389819B
:100960009A81883F910598F38B818F5F8B838B8170
:100970008F3010F30F900F900F90CF91DF9108956B
:10098000DF93CF9300D00F92CDB7DEB7EDEEF0E05E
:10099000808189831A8219C0EDEEF0E08A81829508
:1009A000807F8083EFEEF0E08081882F90E0807C74
:1009B0009070009739F4EDEEF0E0898180838A81B0
:1009C0008B830CC08A818F5F8A838A818F3020F36A
:1009D000EDEEF0E0898180838FEF8B838B810F9028
:1009E0000F900F90CF91DF910895DF93CF9300D0B8
:1009F0000F92CDB7DEB7EFEEF0E08081882F90E068
:100A0000807C9070009719F48FEF8B831DC0EEEE01
:100A1000F0E0808189838981807E8A838A81803227
:100A200031F08A81803419F08A81803A19F48A8100
:100A30008B830AC089818F718A838A81882319F008
:100A40008A818B8301C01B828B810F900F900F9046
:100A5000CF91DF910895DF93CF9300D00F92CDB760
:100A6000DEB79B838A8319820FC08981282F30E0EB
:100A70008A819B81DC01A20FB31FEAEFF0E0808145
:100A80008C9389818F5F89838981282F30E0EFEEF5
:100A9000F0E08081882F90E08F70907028173907E0
:100AA00024F30F900F900F90CF91DF910895DF9373
:100AB000CF93CDB7DEB768970FB6F894DEBF0FBE01
:100AC000CDBF8A8B1E82188688858B871B821D82EC
:100AD0001C8281E08A878A898823A9F481E0888B37
:100AE00088E08E8782E08D8782E08C879D858C856B
:100AF000890F982F90958E85890F8F8781E08F833E
:100B000081E08987A5C0E2EEF0E08081882F90E047
:100B10008E779070959587950196823091056CF04F
:100B2000E2EEF0E08081882F90E08E7790709595CE
:100B30008795982F9F5F988F02C081E0888F988D4E
:100B4000988BE3EEF0E08081882F90E08E709070BB
:100B5000959587950196823091056CF0E3EEF0E073
:100B60008081882F90E08E70907095958795982F52
:100B70009F5F9F8B02C081E08F8B9F899F87E4EEF0
:100B8000F0E08081882F90E08E7090709595879529
:100B90000196833091056CF0E4EEF0E08081882FBF
:100BA00090E08E70907095958795982F9F5F9E8BA3
:100BB00002C082E08E8B9E899D87E4EEF0E080810A
:100BC000882F90E08077907095958795959587957B
:100BD00095958795959587950196833091059CF01D
:100BE000E4EEF0E08081882F90E08077907095951A
:100BF0008795959587959595879595958795982F40
:100C00009F5F9D8B02C082E08D8B9D899C878F8525
:100C1000282F30E08D85882F90E0280F391F8C8594
:100C2000882F90E0820F931F01969C8B8B8B8B8972
:100C30009C898830910524F488E090E09C8B8B8B14
:100C40009B899E8781E0888788858B871F8219868C
:100C5000198A1BC0EDEEF0E089898295807F808340
:100C60008EEE90E09A83898308C0E981FA81108230
:100C700089819A8101969A83898389819A81883FA3
:100C8000910598F389898F5F898B89898F3010F35B
:100C900061C18F81813009F0C2C0E8EDF0E081E0F0
:100CA00080838C819D8101969D838C831E82E2EEE0
:100CB000F0E088898150880F8083E3EEF0E08C8536
:100CC0008695882F90E00197880F991F82959295BD
:100CD000907F9827807F9827282F8F85882F90E0F6
:100CE0000197880F991F822B8083E4EEF0E08C85BA
:100CF000882F90E0019782959295907F9827807F2A
:100D00009827282F8D85882F90E00197880F991FAD
:100D1000822B81608083E5EEF0E08C819D81969549
:100D2000879596958795969587958083EDEEF0E06B
:100D30001082EEEEF0E01082EFEEF0E080E88083CB
:100D4000E8EDF0E08AE08083E9EDF0E08081882F33
:100D500090E0847090700097B9F3EAEDF0E08FEFC7
:100D600080835DC0EEEEF0E08081898B8989882FD9
:100D700090E0807290700097C9F0198618861A86E4
:100D800081E08B83AFEEB0E0EFEEF0E080818F7317
:100D90008C93E8EDF0E01082E9EDF0E08081882F9F
:100DA00090E0847090700097B9F739C08989882FD6
:100DB00090E08F719070009719F081E08887198614
:100DC000EAEDF0E08081898B8989882F90E080723C
:100DD00090700097C1F08E81882359F4AAEDB0E09D
:100DE000EAEDF0E0808180628C938E818F5F8E834C
:100DF0000AC0AAEDB0E0EAEDF0E0808180628C9359
:100E000081E0888719868989882F90E08F7090709B
:100E1000009729F081E08887198681E08F83898592
:100E2000813009F49FCF92C08B85882319F08D857E
:100E30008F5F8D8781E08B878D85893078F18C85F8
:100E4000883060F182E08D8782E08C871B868E85FA
:100E5000893121F08E858F5F8E8778C088E08E87FC
:100E60008889803421F088898F5F888B6FC01886CD
:100E70001B821A86AFEEB0E0EFEEF0E080818F7358
:100E80008C93E8EDF0E01082E9EDF0E08081882FAE
:100E900090E0847090700097B9F758C08D858630C7
:100EA00080F08D85282F30E08C85882F90E001968A
:100EB0008217930744F48C858F5F8C878C858D8790
:100EC00002C08D858C879D858C85890F982F909584
:100ED0008E85890F8F878F858930C0F58F85882310
:100EE000A9F18C85882F90E0AC01440F551F440F69
:100EF000551F8F85882F90E09C012F5F3F4F8D8578
:100F0000882F90E0820F931F48175907FCF08C85BB
:100F1000282F30E08C85882F90E0280F391F8C8592
:100F2000882F90E0A901480F591F8F85882F90E0E6
:100F30009C012F5F3F4F8D85882F90E0820F931F7C
:100F4000841795071CF0188681E089878885813091
:100F500009F46ACF8A85813009F49BCE8B8168962B
:100F60000FB6F894DEBF0FBECDBFCF91DF910895CD
:100F7000DF93CF930F92CDB7DEB78983E8EDF0E032
:100F800081E08083E2EEF0E086E08083E3EEF0E053
:100F90008CE08083E4EEF0E087E3808381E00F90D3
:100FA000CF91DF910895DF93CF9300D0CDB7DEB717
:100FB000898389810E94B807882311F41A820BC0A3
:100FC0000E949404A8EDB0E0E8EDF0E0808182603A
:100FD0008C9381E08A838A810F900F90CF91DF916B
:100FE0000895DF93CF93CDB7DEB72D970FB6F89462
:100FF000DEBF0FBECDBF9A878987E985FA858181DB
:101000008C30F9F4E985FA8581858036A9F4ADEE56
:10101000B0E0E985FA8580818295807F8C93AFEE80
:10102000B0E0EFEEF0E080818F738C93EEEEF0E0B5
:101030001082E985FA851082E985FA8511860C947B
:1010400022110E94C0048C838C818F3F11F40C9478
:101050001B11E985FA8580E68187E985FA858C810F
:101060008083EDEEF0E08C818295807F80838EEE30
:1010700090E09A83898308C0E981FA81108289818E
:101080009A8101969A83898389819A81883F910503
:1010900098F3E985FA858181282F30E03D872C87F8
:1010A0008C859D858630910509F473C32C853D851B
:1010B0002730310534F58C859D858330910509F401
:1010C000D3C12C853D85243031056CF48C859D85FC
:1010D00081309105E9F12C853D852230310509F4F7
:1010E00002C10C9417118C859D858430910509F4FB
:1010F00064C22C853D852530310509F4CFC20C949E
:1011000017118C859D858930910509F4C3C52C85FF
:101110003D852A30310574F48C859D858730910595
:1011200009F4BAC32C853D852830310509F4AEC4D5
:101130000C9417118C859D858A30910509F4B6C6EB
:101140002C853D852B30310509F44CC70C941711C3
:10115000E985FA858385882309F457C0A3EFB0E0B9
:1011600089859A850296FC0133968081282F220F6B
:10117000220F220F89859A850296FC013296808182
:10118000829586958770820F8C93A2EFB0E0898557
:101190009A850296FC0132968081282F220F220F19
:1011A000220F89859A850296FC013196808182956D
:1011B00086958770820F8C93A1EFB0E089859A8520
:1011C0000296FC0131968081282F220F220F220FD8
:1011D00089859A850296FC01808182958695877023
:1011E000820F8C93A0EFB0E089859A850296FC016E
:1011F0008081880F880F880F8C93AFEEB0E0EFEE00
:10120000F0E0808180618C9328C0A3EFB0E08985F5
:101210009A850296FC0131968081282F2295220F13
:10122000207E89859A850296FC0180818695869527
:101230008695820F8C93A2EFB0E089859A850296FD
:10124000FC0180818295880F807E8C93AFEEB0E0A8
:10125000EFEEF0E080818F7E8C931B8211C0AAEFAD
:10126000B0E0E985FA85278130858B81882F90E071
:10127000F901E80FF91F80818C938B818F5F8B833D
:10128000E985FA8596818B81891748F3E985FA8586
:101290008285882341F0A0EFB0E0E0EFF0E08081AC
:1012A00084608C9307C0A0EFB0E0E0EFF0E08081B5
:1012B0008B7F8C93AFEEB0E0EFEEF0E09081E985AC
:1012C000FA858681892B8C93AFEEB0E0EFEEF0E0EB
:1012D00080818F738C93AFEEB0E0EFEEF0E0808111
:1012E00080648C93AFC7E985FA858385882309F4E8
:1012F00057C0A3EFB0E089859A850296FC0133962A
:101300008081282F220F220F220F89859A8502962D
:10131000FC0132968081829586958770820F8C932E
:10132000A2EFB0E089859A850296FC013296808111
:10133000282F220F220F220F89859A850296FC0101
:1013400031968081829586958770820F8C93A1EF6C
:10135000B0E089859A850296FC0131968081282F1C
:10136000220F220F220F89859A850296FC01808127
:10137000829586958770820F8C93A0EFB0E0898567
:101380009A850296FC018081880F880F880F8C93C4
:10139000AFEEB0E0EFEEF0E0808180618C9328C08A
:1013A000A3EFB0E089859A850296FC013196808191
:1013B000282F2295220F207E89859A850296FC018E
:1013C0008081869586958695820F8C93A2EFB0E0FA
:1013D00089859A850296FC0180818295880F807E9E
:1013E0008C93AFEEB0E0EFEEF0E080818F7E8C93D7
:1013F0001B8211C0AAEFB0E0E985FA85278130850C
:101400008B81882F90E0F901E80FF91F80818C9380
:101410008B818F5F8B83E985FA8596818B81891714
:1014200048F3E985FA851286A0EFB0E0E0EFF0E03E
:1014300080818B7F8C93AFEEB0E0EFEEF0E0908197
:10144000E985FA858681892B8C93AFEEB0E0EFEECB
:10145000F0E080818F738C93AFEEB0E0EFEEF0E0C0
:10146000808180648C93EEC6E985FA858385882324
:1014700009F457C0A3EFB0E089859A850296FC0174
:1014800033968081282F220F220F220F89859A857B
:101490000296FC0132968081829586958770820F34
:1014A0008C93A2EFB0E089859A850296FC01329672
:1014B0008081282F220F220F220F89859A8502967C
:1014C000FC0131968081829586958770820F8C937E
:1014D000A1EFB0E089859A850296FC013196808162
:1014E000282F220F220F220F89859A850296FC0150
:1014F0008081829586958770820F8C93A0EFB0E0F3
:1015000089859A850296FC018081880F880F880F53
:101510008C93AFEEB0E0EFEEF0E0808180618C93D1
:1015200028C0A3EFB0E089859A850296FC01319628
:101530008081282F2295220F207E89859A85029608
:10154000FC018081869586958695820F8C93A2EF0B
:10155000B0E089859A850296FC0180818295880F8A
:10156000807E8C93AFEEB0E0EFEEF0E080818F7E76
:101570008C93E985FA8581E08287A0EFB0E0E0EF07
:10158000F0E0808184608C93AFEEB0E0EFEEF0E0AD
:101590009081E985FA858681892B8C93AFEEB0E046
:1015A000EFEEF0E080818F738C93AFEEB0E0EFEE62
:1015B000F0E0808180648C9345C61D821E821F826C
:1015C0001886A7EFB0E0CE010596FC013396808126
:1015D000282F220F220F220FCE010596FC013296F2
:1015E0008081829586958770820F8C93A6EFB0E0FC
:1015F000CE010596FC0132968081282F220F220F02
:10160000220FCE010596FC01319680818295869548
:101610008770820F8C93A5EFB0E0CE010596FC0198
:1016200031968081982F990F990F990FFE01359669
:101630008081829586958770890F8C93A4EFB0E0A6
:10164000FE0135968081880F880F880F8C93AFEE4E
:10165000B0E0EFEEF0E09081E985FA858681892B94
:101660008C93A4EFB0E0E4EFF0E080818B7F8C936B
:10167000A4EFB0E0E4EFF0E080818E7F8C93AFEEDA
:10168000B0E0EFEEF0E080818F738C93AFEEB0E0CE
:10169000EFEEF0E0808180688C93D4C51D821E82BD
:1016A0001F821886A7EFB0E0CE010596FC013396A5
:1016B0008081282F220F220F220FCE010596FC01D8
:1016C00032968081829586958770820F8C93A6EFE3
:1016D000B0E0CE010596FC0132968081282F220FC2
:1016E000220F220FCE010596FC0131968081829552
:1016F00086958770820F8C93A5EFB0E0CE0105969A
:10170000FC0131968081982F990F990F990FFE0156
:1017100035968081829586958770890F8C93A4EF8A
:10172000B0E0FE0135968081880F880F880F8C937A
:10173000AFEEB0E0EFEEF0E09081E985FA858681CA
:10174000892B8C93E985FA851286A4EFB0E0E4EF4B
:10175000F0E0808184608C93A0EFB0E0E0EFF0E0F7
:1017600080818B7F8C93A4EFB0E0E4EFF0E0808188
:101770008E7F8C93AFEEB0E0EFEEF0E080818F7360
:101780008C93AFEEB0E0EFEEF0E0808180688C9358
:1017900059C51D821E821F821886A7EFB0E0CE01B8
:1017A0000596FC0133968081282F220F220F220FED
:1017B000CE010596FC0132968081829586958770D0
:1017C000820F8C93A6EFB0E0CE010596FC01329615
:1017D0008081282F220F220F220FCE010596FC01B7
:1017E00031968081829586958770820F8C93A5EFC4
:1017F000B0E0CE010596FC0131968081982F990FBB
:10180000990F990FFE013596808182958695877094
:10181000890F8C93A4EFB0E0FE0135968081880F8C
:10182000880F880F8C93AFEEB0E0EFEEF0E0908180
:10183000E985FA858681892B8C93E985FA8581E093
:101840008287A4EFB0E0E4EFF0E0808184608C93C5
:10185000A0EFB0E0E0EFF0E0808184608C93AFEE29
:10186000B0E0EFEEF0E080818F7D8C93A4EFB0E0EC
:10187000E4EFF0E080818E7F8C93AFEEB0E0EFEE8E
:10188000F0E080818F738C93AFEEB0E0EFEEF0E08C
:10189000808180688C93D6C4E985FA858385882306
:1018A00009F457C0A3EFB0E089859A850296FC0140
:1018B00033968081282F220F220F220F89859A8547
:1018C0000296FC0132968081829586958770820F00
:1018D0008C93A2EFB0E089859A850296FC0132963E
:1018E0008081282F220F220F220F89859A85029648
:1018F000FC0131968081829586958770820F8C934A
:10190000A1EFB0E089859A850296FC01319680812D
:10191000282F220F220F220F89859A850296FC011B
:101920008081829586958770820F8C93A0EFB0E0BE
:1019300089859A850296FC018081880F880F880F1F
:101940008C93AFEEB0E0EFEEF0E0808180618C939D
:1019500028C0A3EFB0E089859A850296FC013196F4
:101960008081282F2295220F207E89859A850296D4
:10197000FC018081869586958695820F8C93A2EFD7
:10198000B0E089859A850296FC0180818295880F56
:10199000807E8C93AFEEB0E0EFEEF0E080818F7E42
:1019A0008C938FEF9FEFAFEFBFEF8D839E83AF835D
:1019B000B887A7EFB0E0CE010596FC013396808191
:1019C000282F220F220F220FCE010596FC013296FE
:1019D0008081829586958770820F8C93A6EFB0E008
:1019E000CE010596FC0132968081282F220F220F0E
:1019F000220FCE010596FC01319680818295869555
:101A00008770820F8C93A5EFB0E0CE010596FC01A4
:101A100031968081982F990F990F990FFE01359675
:101A20008081829586958770890F8C93A4EFB0E0B2
:101A3000FE0135968081880F880F880F8C93AFEE5A
:101A4000B0E0EFEEF0E09081E985FA858681892BA0
:101A50008C93A4EFB0E0E4EFF0E080818B7F8C9377
:101A6000A4EFB0E0E4EFF0E0808181608C93AFEE12
:101A7000B0E0EFEEF0E080818F738C93AFEEB0E0DA
:101A8000EFEEF0E0808180688C93DCC3E985FA8515
:101A90008385882309F457C0A3EFB0E089859A8530
:101AA0000296FC0133968081282F220F220F220FED
:101AB00089859A850296FC01329680818295869569
:101AC0008770820F8C93A2EFB0E089859A85029689
:101AD000FC0132968081282F220F220F220F898548
:101AE0009A850296FC013196808182958695877051
:101AF000820F8C93A1EFB0E089859A850296FC0154
:101B000031968081282F220F220F220F89859A85F6
:101B10000296FC018081829586958770820F8C9356
:101B2000A0EFB0E089859A850296FC018081880F3C
:101B3000880F880F8C93AFEEB0E0EFEEF0E080817D
:101B400080618C9328C0A3EFB0E089859A850296C6
:101B5000FC0131968081282F2295220F207E8985D5
:101B60009A850296FC018081869586958695820FDE
:101B70008C93A2EFB0E089859A850296FC01808162
:101B80008295880F807E8C93AFEEB0E0EFEEF0E0B0
:101B900080818F7E8C938FEF9FEFAFEFBFEF8D83B0
:101BA0009E83AF83B887A7EFB0E0CE010596FC0116
:101BB00033968081282F220F220F220FCE01059607
:101BC000FC0132968081829586958770820F8C9376
:101BD000A6EFB0E0CE010596FC0132968081282F59
:101BE000220F220F220FCE010596FC013196808133
:101BF000829586958770820F8C93A5EFB0E0CE0119
:101C00000596FC0131968081982F990F990F990FB5
:101C1000FE0135968081829586958770890F8C9319
:101C2000A4EFB0E0FE0135968081880F880F880F01
:101C30008C93AFEEB0E0EFEEF0E09081E985FA85AD
:101C40008681892B8C93E985FA851286A4EFB0E012
:101C5000E4EFF0E0808184608C93A0EFB0E0E0EFEF
:101C6000F0E080818B7F8C93A4EFB0E0E4EFF0E0B4
:101C7000808181608C93AFEEB0E0EFEEF0E0808188
:101C80008F738C93AFEEB0E0EFEEF0E08081806870
:101C90008C93D8C2E985FA858385882309F457C0D7
:101CA000A3EFB0E089859A850296FC013396808186
:101CB000282F220F220F220F89859A850296FC0178
:101CC00032968081829586958770820F8C93A2EFE1
:101CD000B0E089859A850296FC0132968081282F92
:101CE000220F220F220F89859A850296FC013196D8
:101CF0008081829586958770820F8C93A1EFB0E0EA
:101D000089859A850296FC0131968081282F220FC1
:101D1000220F220F89859A850296FC018081829587
:101D200086958770820F8C93A0EFB0E089859A85A5
:101D30000296FC018081880F880F880F8C93AFEE8C
:101D4000B0E0EFEEF0E0808180618C9328C0A3EFDB
:101D5000B0E089859A850296FC0131968081282F12
:101D60002295220F207E89859A850296FC0180812A
:101D7000869586958695820F8C93A2EFB0E0898533
:101D80009A850296FC0180818295880F807E8C93D3
:101D9000AFEEB0E0EFEEF0E080818F7E8C938FEFBE
:101DA0009FEFAFEFBFEF8D839E83AF83B887A7EF21
:101DB000B0E0CE010596FC0133968081282F220FDA
:101DC000220F220FCE010596FC013296808182956A
:101DD00086958770820F8C93A6EFB0E0CE010596B2
:101DE000FC0132968081282F220F220F220FCE0174
:101DF0000596FC0131968081829586958770820FC9
:101E00008C93A5EFB0E0CE010596FC013196808160
:101E1000982F990F990F990FFE0135968081829521
:101E200086958770890F8C93A4EFB0E0FE013596FC
:101E30008081880F880F880F8C93AFEEB0E0EFEEB3
:101E4000F0E09081E985FA858681892B8C93E9857C
:101E5000FA8581E08287A4EFB0E0E4EFF0E08081D2
:101E600084608C93A0EFB0E0E0EFF0E080818460CC
:101E70008C93AFEEB0E0EFEEF0E080818F7D8C933D
:101E8000A4EFB0E0E4EFF0E0808181608C93AFEEEE
:101E9000B0E0EFEEF0E080818F738C93AFEEB0E0B6
:101EA000EFEEF0E0808180688C93CCC11B8211C082
:101EB000AAEFB0E0E985FA85278130858B81882FEC
:101EC00090E0F901E80FF91F80818C938B818F5F7F
:101ED0008B83E985FA8596818B81891748F31D826A
:101EE0001E821F821886A7EFB0E0CE010596FC0186
:101EF00033968081282F220F220F220FCE010596C4
:101F0000FC0132968081829586958770820F8C9332
:101F1000A6EFB0E0CE010596FC0132968081282F15
:101F2000220F220F220FCE010596FC0131968081EF
:101F3000829586958770820F8C93A5EFB0E0CE01D5
:101F40000596FC0131968081982F990F990F990F72
:101F5000FE0135968081829586958770890F8C93D6
:101F6000A4EFB0E0FE0135968081880F880F880FBE
:101F70008C93AFEEB0E0EFEEF0E09081E985FA856A
:101F80008681892B8C93E985FA8581E08287A4EF8D
:101F9000B0E0E4EFF0E0808184608C93A0EFB0E0EB
:101FA000E0EFF0E0808184608C93AFEEB0E0EFEE84
:101FB000F0E0808180628C93A4EFB0E0E4EFF0E089
:101FC00080818E7F8C93AFEEB0E0EFEEF0E0808109
:101FD0008F738C93AFEEB0E0EFEEF0E0808180681D
:101FE0008C9330C1E985FA858385882309F457C02D
:101FF000A3EFB0E089859A850296FC013396808133
:10200000282F220F220F220F89859A850296FC0124
:1020100032968081829586958770820F8C93A2EF8D
:10202000B0E089859A850296FC0132968081282F3E
:10203000220F220F220F89859A850296FC01319684
:102040008081829586958770820F8C93A1EFB0E096
:1020500089859A850296FC0131968081282F220F6E
:10206000220F220F89859A850296FC018081829534
:1020700086958770820F8C93A0EFB0E089859A8552
:102080000296FC018081880F880F880F8C93AFEE39
:10209000B0E0EFEEF0E0808180618C9328C0A3EF88
:1020A000B0E089859A850296FC0131968081282FBF
:1020B0002295220F207E89859A850296FC018081D7
:1020C000869586958695820F8C93A2EFB0E08985E0
:1020D0009A850296FC0180818295880F807E8C9380
:1020E000AFEEB0E0EFEEF0E080818F7E8C931B824C
:1020F00011C0AAEFB0E0E985FA85278130858B8190
:10210000882F90E0F901E80FF91F80818C938B8173
:102110008F5F8B83E985FA8596818B81891748F3D8
:102120008FEF9FEFAFEFBFEF8D839E83AF83B887B5
:10213000A7EFB0E0CE010596FC0133968081282FF1
:10214000220F220F220FCE010596FC0132968081CC
:10215000829586958770820F8C93A6EFB0E0CE01B2
:102160000596FC0132968081282F220F220F220F24
:10217000CE010596FC013196808182958695877007
:10218000820F8C93A5EFB0E0CE010596FC0131964D
:102190008081982F990F990F990FFE0135968081B4
:1021A000829586958770890F8C93A4EFB0E0FE012D
:1021B00035968081880F880F880F8C93AFEEB0E042
:1021C000EFEEF0E09081E985FA858681892B8C938A
:1021D000E985FA8581E08287A4EFB0E0E4EFF0E0E2
:1021E000808184608C93A0EFB0E0E0EFF0E080812C
:1021F00084608C93AFEEB0E0EFEEF0E0808180621F
:102200008C93A4EFB0E0E4EFF0E0808181608C93E8
:10221000AFEEB0E0EFEEF0E080818F738C93AFEE25
:10222000B0E0EFEEF0E0808180688C930BC0E98530
:10223000FA85118607C0E985FA858FE181873FEF2E
:102240003B8701C01B868B852D960FB6F894DEBFA9
:102250000FBECDBFCF91DF910895DF93CF93CDB760
:10226000DEB727970FB6F894DEBF0FBECDBF9C83B5
:102270008B83EB81FC8181858A838A81882331F07D
:102280008A818F3119F08A818F3F19F422E02F83E0
:10229000FBC0ADEEB0E0EB81FC8180818295807F58
:1022A0008C930E94F5048A838A81282F30E03E8334
:1022B0002D838D819E8180329105C9F02D813E81D3
:1022C000213231052CF48D819E81009769F0CAC0BE
:1022D0002D813E812034310509F4B4C08D819E8169
:1022E000803A910521F0BEC081E08983CBC0EFEE3A
:1022F000F0E080818F70EB81FC818683EB81FC8133
:10230000878190850E942B05E0EFF0E08081882F87
:1023100090E0847090709595879595958795EB8161
:10232000FC818287EFEEF0E08081882F90E0807161
:1023300090709595879595958795959587959595A1
:102340008795009709F44CC0EB81FC8181E083877D
:102350008B819C810296DC011396E3EFF0E0808193
:102360008695869586958C938B819C810296DC015F
:102370001296E2EFF0E08081982F969596959695CB
:10238000E3EFF0E080818295880F807E890F8C9347
:102390008B819C810296DC011196E1EFF0E0808157
:1023A000982F969596959695E2EFF0E0808182952C
:1023B000880F807E890F8C938B819C810296DC0133
:1023C000E0EFF0E08081982F969596959695E1EF55
:1023D000F0E080818295880F807E890F8C9322C0E7
:1023E000EB81FC8113868B819C810296DC01119626
:1023F000E3EFF0E080818295869587708C938B81E6
:102400009C810296DC01E2EFF0E08081982F9295AA
:1024100096959770E3EFF0E08081880F880F880F22
:10242000890F8C93EB81FC818A818187AFEEB0E0CC
:10243000EFEEF0E080818F738C93EEEEF0E010828F
:10244000198220C0EB81FC818A818187AFEEB0E0E8
:10245000EFEEF0E080818F738C93EEEEF0E010826F
:10246000198210C0EB81FC818A818187AFEEB0E0D8
:10247000EFEEF0E080818F738C93EEEEF0E010824F
:1024800082E0898399819F838F8127960FB6F89484
:10249000DEBF0FBECDBFCF91DF910895DF93CF9305
:1024A000CDB7DEB7C154D0400FB6F894DEBF0FBE33
:1024B000CDBF809115068987809171069091720633
:1024C000892F99278A8780917106909172068B8750
:1024D000809112068C87809141068D8780914106FC
:1024E0008E870E94CE148091E205882F90E0892F7C
:1024F000990F990B8F878091E205888B0E94DE13DC
:1025000088878885882F90E0880F991FFC01E15EFD
:10251000F94F80819181898B88858A8B0E941A145A
:102520008F838F81882F90E0880F991FFC01E15ED7
:10253000F94F808191818B8B8F818C8B2091DE056F
:102540003091DF0580916E0690916F06A901481BBE
:10255000590BCA0128EE33E0B9010E947642CB0143
:102560009E838D838D819E81892F990F990B8D8BF1
:102570008D818E8B1F8A8FE0888F198E82E38A8FE0
:102580008FEF8B8F8FEF8C8F8FEF8D8F8FEF8E8FE5
:102590008FEF8F8F8FEF88A38FEF89A38FEF8AA3A1
:1025A0008091AE068BA38091AE069AE0692F0E94BF
:1025B0006A42282F30E084E690E0AC01421B530BC6
:1025C0009A01C901880F991F820F931F24E630E0FA
:1025D000B9010E947642CB019C838B838B819C81C5
:1025E000892F99278CA38B818DA38CE08EA384EEF9
:1025F0008FA38FEF88A78FEF89A780910D068AA7F9
:102600008FEF8BA78FEF8CA78FEF8DA78FEF8EA704
:102610008FEF8FA78FEF88AB8FEF89AB0E9492145B
:102620008A838A81882F90E0880F991FFC01E65ADF
:10263000FA4F808191818AAB8A818BAB0E945614BC
:1026400089838981882F90E0880F991FFC01E65AC1
:10265000FA4F808191818CAB89818DABA8EDB0E080
:10266000E8EDF0E0808182608C930E94940480E227
:1026700096E099AF88AF88E08CAF8EE591E09EAF91
:102680008DAFFE01EF5BFF4F108282E08FABCE017A
:10269000C6960E94F1078823D1F781E296E099AFB0
:1026A00088AF88E08CAF86E691E09EAF8DAFCE011B
:1026B000C6960E94F1078823D1F782E296E099AF8F
:1026C00088AF86E08CAFCE0109969EAF8DAFCE016C
:1026D000C6960E94F1078823D1F783E296E099AF6E
:1026E00088AF86E08CAFCE010F969EAF8DAFCE0146
:1026F000C6960E94F1078823D1F784E296E099AF4D
:1027000088AF86E08CAFCE0145969EAF8DAFCE01EF
:10271000C6960E94F1078823D1F785E296E099AF2B
:1027200088AF88E08CAFCE014B969EAF8DAFCE01C7
:10273000C6960E94F1078823D1F786E296E099AF0A
:1027400088AF87E08CAFCE0183969EAF8DAFCE0170
:10275000C6960E94F1078823D1F787E296E099AFE9
:1027600088AF86E08CAFCE018A969EAF8DAFCE014A
:10277000C6960E94F1078823D1F788E296E099AFC8
:1027800088AF86E08CAFCE01C0969EAF8DAFCE01F4
:10279000C6960E94F1078823D1F7A1E3B0E0E1E3F8
:1027A000F0E0808188608C93CF5BDF4F0FB6F894A8
:1027B000DEBF0FBECDBFCF91DF910895DF93CF93E2
:1027C00000D000D0CDB7DEB78091210690912206CF
:1027D0009A83898381E08C8382E08B8320C08B8104
:1027E000882F90E0880F991FFC01E15EF94F20814E
:1027F000318189819A812817390770F48B81882F5C
:1028000090E0880F991FFC01E15EF94F8081918172
:102810009A8389838B818C838B818F5F8B838B8160
:102820008730E8F28C810F900F900F900F90CF912E
:10283000DF910895DF93CF9300D000D0CDB7DEB7FE
:1028400080912106909122069A83898381E08C836E
:1028500082E08B8320C08B81882F90E0880F991FA6
:10286000FC01E15EF94F2081318189819A818217D3
:10287000930770F48B81882F90E0880F991FFC01DB
:10288000E15EF94F808191819A8389838B818C836A
:102890008B818F5F8B838B818730E8F28C810F90E7
:1028A0000F900F900F90CF91DF910895DF93CF930A
:1028B00000D000D0CDB7DEB780915C0590915D056A
:1028C0009A83898381E08C8382E08B8320C08B8113
:1028D000882F90E0880F991FFC01E65AFA4F20815B
:1028E000318189819A818217930770F48B81882FB7
:1028F00090E0880F991FFC01E65AFA4F8081918180
:102900009A8389838B818C838B818F5F8B838B816F
:102910008730E8F28C810F900F900F900F90CF913D
:10292000DF910895DF93CF9300D000D0CDB7DEB70D
:1029300080915C0590915D059A83898381E08C8309
:1029400082E08B8320C08B81882F90E0880F991FB5
:10295000FC01E65AFA4F2081318189819A8128173A
:10296000390770F48B81882F90E0880F991FFC0144
:10297000E65AFA4F808191819A8389838B818C8377
:102980008B818F5F8B838B818730E8F28C810F90F6
:102990000F900F900F90CF91DF910895DF93CF9319
:1029A000CDB7DEB727970FB6F894DEBF0FBECDBF09
:1029B0001A821B821C821D8281E089831CC089814E
:1029C000882F90E0880F991FFC01E15EF94F80810C
:1029D00091819C0140E050E08A819B81AC81BD8166
:1029E000820F931FA41FB51F8A839B83AC83BD8373
:1029F00089818F5F89838981873008F38A819B81F0
:102A0000AC81BD8128EE33E040E050E0BC01CD0157
:102A10000E949D42DA01C9018093E2058A819B816F
:102A2000AC81BD8126E030E040E050E0BC01CD014A
:102A30000E949D42DA01C9019F838E838E819F810E
:102A400027960FB6F894DEBF0FBECDBFCF91DF91B2
:102A50000895DF93CF93CDB7DEB727970FB6F894DD
:102A6000DEBF0FBECDBF1A821B821C821D8281E099
:102A700089831CC08981882F90E0880F991FFC01F1
:102A8000E65AFA4F808191819C0140E050E08A81B2
:102A90009B81AC81BD81820F931FA41FB51F8A83C8
:102AA0009B83AC83BD8389818F5F898389818730D4
:102AB00008F38A819B81AC81BD8126E030E040E053
:102AC00050E0BC01CD010E949D42DA01C9019F8303
:102AD0008E838E819F8127960FB6F894DEBF0FBE3E
:102AE000CDBFCF91DF910895DF93CF93CDB7DEB700
:102AF00027970FB6F894DEBF0FBECDBF19820E9494
:102B00001A14882F90E0880F991FFC01E15EF94F9D
:102B1000808191812FE08B3F920718F081E08983BB
:102B200052C00E94DE13882F90E0880F991FFC018D
:102B3000E15EF94F808191814CE08C31940718F46B
:102B400082E0898340C080910D06893224F480910F
:102B50000D06853064F4E9E2F0E08081882F90E092
:102B600082709070009719F083E089832CC0809167
:102B70000D06883324F480910D06863F1CF484E012
:102B8000898321C02091DE053091DF0580916E069A
:102B900090916F06A901481B590BCA019F838E8330
:102BA0008E819F8199233CF44E815F8150954195A0
:102BB0005F4F5F834E838E819F8128E3853A920722
:102BC00014F085E089832091A7053091A8058091B4
:102BD000DE059091DF05A901481B590BCA019D83B1
:102BE0008C838C819D8199233CF44C815D8150952F
:102BF00041955F4F5D834C838C819D812091A7051A
:102C00003091A805369527953695279528173907C9
:102C100058F48091DE059091DF0555E08D3D9507D4
:102C200018F086E0898330C02091190630911A0689
:102C300080916E0690916F06A901481B590BCA013D
:102C40009B838A838A819B8199233CF44A815B819F
:102C5000509541955F4F5B834A838A819B81209188
:102C6000190630911A063695279536952795281717
:102C7000390750F480916E0690916F0651E08139CA
:102C8000950710F087E08983898127960FB6F8941D
:102C9000DEBF0FBECDBFCF91DF9108950F931F937D
:102CA000DF93CF93CDB7DEB7C955D0400FB6F894B8
:102CB000DEBF0FBECDBFFE01E95AFF4F108210925A
:102CC000A9050E941A14FE01E85AFF4F882F90E0D0
:102CD00091838083FE01E85AFF4F80819181880FA4
:102CE000991FFC01E15EF94F8081918120E18F35D0
:102CF000920708F418C10E94A02EFE01EF5AFF4F60
:102D000080E090E0A0E8BFE380839183A283B38357
:102D10008E01035B1F4FFE01EF5AFF4F60817181EF
:102D20008281938120E030E04AE753E40E94E84149
:102D3000DC01CB01F80180839183A283B383FE0180
:102D4000E35BFF4F608171818281938120E030E0FD
:102D500040E85FE30E94D740882344F4FE01E55B2E
:102D6000FF4F81E090E09183808364C0FE01E35BCC
:102D7000FF4F608171818281938120E03FEF4FE7B7
:102D800057E40E94E44118160CF043C0FE01EF5ACC
:102D9000FF4F608171818281938120E030E040E2C9
:102DA00051E40E94E841DC01CB018E01055B1F4F1D
:102DB000BC01CD010E944341DC01CB01F8019183AC
:102DC00080831FC0FE01E75BFF4F89E190E09183A4
:102DD0008083FE01E75BFF4F808191810197F1F7CE
:102DE000FE01E75BFF4F91838083DE01A55BBF4F50
:102DF000FE01E55BFF4F80819181019711969C93C5
:102E00008E93FE01E55BFF4F808191810097D1F6A3
:102E100027C08E01055B1F4FFE01E35BFF4F608102
:102E20007181828193810E944341DC01CB01F801D1
:102E300091838083DE01A95BBF4FFE01E55BFF4FFD
:102E4000808191818D939C93FE01E95BFF4F80818E
:102E500091810197F1F7FE01E95BFF4F9183808338
:102E60000E94DA2FFE01E85AFF4F80819181880F7E
:102E7000991FFC01E15EF94F80819181F0E18F356E
:102E80009F0708F459C0A5E2B0E0E5E2F0E08081D8
:102E90008F778C9381E08093180681E08093A90559
:102EA000FE01EB5AFF4F81E090E0918380832EC0BA
:102EB000FE01E85AFF4F8081918101979C0181E0DA
:102EC00090E002C0880F991F2A95E2F7982FFE0123
:102ED000E95AFF4F8081892BFE01E95AFF4F808319
:102EE000FE01EB5AFF4F8081FE01E95AFF4F6081DE
:102EF0000E94FC31DE01AB5ABF4FFE01EB5AFF4F7F
:102F000080819181019611969C938E938091E30527
:102F1000282F30E0FE01EB5AFF4F80819181281766
:102F2000390734F609C00E94DE13FE01E85AFF4F4C
:102F3000882F90E091838083FE01E85AFF4F8081C3
:102F40009181880F991FFC01E15EF94F8081918189
:102F50002BE0883B920708F0BDC00E94A02EFE0126
:102F6000ED5BFF4F80E090E0A0E8BFE380839183BA
:102F7000A283B3838E01015C1F4FFE01ED5BFF4F07
:102F8000608171818281938120E030E04AE753E4DF
:102F90000E94E841DC01CB01F80180839183A28388
:102FA000B383FE01FF96608171818281938120E06D
:102FB00030E040E85FE30E94D74088232CF481E0B2
:102FC00090E09EAF8DAF46C0FE01FF96608171819B
:102FD0008281938120E03FEF4FE757E40E94E44174
:102FE000181664F5FE01ED5BFF4F608171818281EF
:102FF000938120E030E040E251E40E94E841DC01AE
:10300000CB01BC01CD010E944341DC01CB019EAF4D
:103010008DAF0FC089E190E09CAF8BAF8BAD9CADC5
:103020000197F1F79CAF8BAF8DAD9EAD01979EAF31
:103030008DAF8DAD9EAD009769F716C0FE01FF966E
:1030400060817181828193810E944341DC01CB01C7
:103050009EAF8DAF8DAD9EAD9AAF89AF89AD9AAD64
:103060000197F1F79AAF89AF0E94DA2FFE01E85A73
:10307000FF4F80819181880F991FFC01E15EF94F1C
:1030800080819181FBE0883B9F0708F0A3C2A5E205
:10309000B0E0E5E2F0E080818F778C9381E080936F
:1030A000180682E08093A905A8EDB0E0E8EDF0E015
:1030B00080818D7F8C93A1E3B0E0E1E3F0E080813B
:1030C00088608C93A0E3B0E0E0E3F0E0808188606A
:1030D0008C9380C2E9E2F0E08081882F90E08270DA
:1030E0009070009709F42AC180910D068E3224F465
:1030F00080910D06882314F40E94A02E80E090E0B9
:10310000A0E8BFE38DAB9EABAFABB8AF6DA97EA916
:103110008FA998AD20E030E04AE753E40E94E841EF
:10312000DC01CB0189AB9AABABABBCAB69A97AA98B
:103130008BA99CA920E030E040E85FE30E94D740E3
:1031400088232CF481E090E098AB8FA73FC069A959
:103150007AA98BA99CA920E03FEF4FE757E40E9492
:10316000E44118164CF56DA97EA98FA998AD20E011
:1031700030E040E251E40E94E841DC01CB01BC01B7
:10318000CD010E944341DC01CB0198AB8FA70FC05A
:1031900089E190E09EA78DA78DA59EA50197F1F7E7
:1031A0009EA78DA78FA598A9019798AB8FA78FA5EC
:1031B00098A9009769F714C069A97AA98BA99CA955
:1031C0000E944341DC01CB0198AB8FA78FA598A942
:1031D0009CA78BA78BA59CA50197F1F79CA78BA714
:1031E0000E94DA2F80910D068E3224F480910D0614
:1031F000882374F4A5E2B0E0E5E2F0E080818F7707
:103200008C9381E08093180683E08093A905E2C146
:1032100080916E0690916F062AE38939920708F42F
:10322000D9C10E94A02E80E090E0A0E8BFE38FA368
:1032300098A7A9A7BAA76FA178A589A59AA520E004
:1032400030E04AE753E40E94E841DC01CB018BA364
:103250009CA3ADA3BEA36BA17CA18DA19EA120E0E8
:1032600030E040E85FE30E94D74088232CF481E0FF
:1032700090E09AA389A33FC06BA17CA18DA19EA1E0
:1032800020E03FEF4FE757E40E94E44118164CF569
:103290006FA178A589A59AA520E030E040E251E42D
:1032A0000E94E841DC01CB01BC01CD010E944341F9
:1032B000DC01CB019AA389A30FC089E190E098A318
:1032C0008F8F8F8D98A10197F1F798A38F8F89A188
:1032D0009AA101979AA389A389A19AA1009769F756
:1032E00014C06BA17CA18DA19EA10E944341DC0171
:1032F000CB019AA389A389A19AA19E8F8D8F8D8DD1
:103300009E8D0197F1F79E8F8D8F0E94DA2F80910D
:103310006E0690916F06EAE389399E0708F45AC158
:10332000A5E2B0E0E5E2F0E080818F778C9381E068
:103330008093180684E08093A9054CC180910D0606
:103340008D332CF480910D06813F0CF08DC00E94CE
:10335000A02E80E090E0A0E8BFE3898F9A8FAB8F2A
:10336000BC8F698D7A8D8B8D9C8D20E030E04AE793
:1033700053E40E94E841DC01CB018D8B9E8BAF8B27
:10338000B88F6D897E898F89988D20E030E040E884
:103390005FE30E94D74088232CF481E090E09C8B6F
:1033A0008B8B3FC06D897E898F89988D20E03FEFA0
:1033B0004FE757E40E94E44118164CF5698D7A8D69
:1033C0008B8D9C8D20E030E040E251E40E94E8418A
:1033D000DC01CB01BC01CD010E944341DC01CB01EA
:1033E0009C8B8B8B0FC089E190E09A8B898B8989AC
:1033F0009A890197F1F79A8B898B8B899C89019720
:103400009C8B8B8B8B899C89009769F714C06D8985
:103410007E898F89988D0E944341DC01CB019C8B72
:103420008B8B8B899C89988B8F878F859889019747
:10343000F1F7988B8F870E94DA2F80910D068D33DC
:103440002CF480910D06813F0CF0C4C0A5E2B0E0E1
:10345000E5E2F0E080818F778C9381E0809318061D
:1034600085E08093A905B6C08091DE059091DF05C7
:10347000F6ED893D9F0708F48CC00E94A02E80E0E5
:1034800090E0A0E8BFE38B879C87AD87BE876B8504
:103490007C858D859E8520E030E04AE753E40E94DC
:1034A000E841DC01CB018F839887A987BA876F81B8
:1034B000788589859A8520E030E040E85FE30E94C6
:1034C000D74088232CF481E090E09E838D833FC019
:1034D0006F81788589859A8520E03FEF4FE757E433
:1034E0000E94E44118164CF56B857C858D859E8580
:1034F00020E030E040E251E40E94E841DC01CB01F1
:10350000BC01CD010E944341DC01CB019E838D8330
:103510000FC089E190E09C838B838B819C81019714
:10352000F1F79C838B838D819E8101979E838D8390
:103530008D819E81009769F714C06F817885898598
:103540009A850E944341DC01CB019E838D838D814E
:103550009E819A83898389819A810197F1F79A8361
:1035600089830E94DA2F8091DE059091DF0526ED98
:10357000893D920778F1A5E2B0E0E5E2F0E08081D4
:103580008F778C9381E08093180686E08093A9055D
:1035900021C08091DE059091DF05E3EC81359E0727
:1035A000B8F08091BE068F5F8093BE068091BE0604
:1035B000823380F0A5E2B0E0E5E2F0E080818F7731
:1035C0008C9381E08093180687E08093A90502C060
:1035D0001092BE068091A905882311F0109215065D
:1035E0008091A905C75ADF4F0FB6F894DEBF0FBE12
:1035F000CDBFCF91DF911F910F910895EF92FF9270
:103600000F931F93DF93CF93CDB7DEB728970FB6F5
:10361000F894DEBF0FBECDBF81E090E09A8389832E
:1036200082C0E980FA80F886EF8289819A81880FCA
:10363000991FFC01EF57FA4F808191819C0140E076
:1036400050E089819A81880F991FFC01E15EF94F52
:1036500080819181CC01A0E0B0E079018A01E81A73
:10366000F90A0A0B1B0BD801C70120E137E240E041
:1036700050E0BC01CD010E944B42DC01CB019E8396
:103680008D830D811E8111233CF44D815E81509507
:1036900041955F4F5E834D832091A7053091A8052A
:1036A0008091DE059091DF057901E81AF90AC701DA
:1036B0009C838B830B811C8111233CF44B815C81A7
:1036C000509541955F4F5C834B838D819E816B81CB
:1036D0007C810E948A42CB019C018F819885880F52
:1036E000991FFC01E65AFA4F318320830E94561439
:1036F000882F90E0880F991FFC01E65AFA4F00814D
:1037000011810E942915880F991F8017910720F4B5
:1037100081E08093410602C01092410689819A811E
:1037200001969A83898389819A81873091050CF467
:1037300078CF28960FB6F894DEBF0FBECDBFCF91DD
:10374000DF911F910F91FF90EF9008950F931F93BA
:10375000DF93CF93CDB7DEB7CF56D0400FB6F894F6
:10376000DEBF0FBECDBFE9E2F0E08081882F90E0A0
:1037700082709070009709F4BBC30E94A02EFE01D6
:10378000ED5BFF4F80E090E0A0E0B0E480839183A8
:10379000A283B3838E01015C1F4FFE01ED5BFF4FDF
:1037A000608171818281938120E030E04AE753E4B7
:1037B0000E94E841DC01CB01F80180839183A28360
:1037C000B383FE01FF96608171818281938120E045
:1037D00030E040E85FE30E94D74088232CF481E08A
:1037E00090E09EAF8DAF46C0FE01FF966081718173
:1037F0008281938120E03FEF4FE757E40E94E4414C
:10380000181664F5FE01ED5BFF4F608171818281C6
:10381000938120E030E040E251E40E94E841DC0185
:10382000CB01BC01CD010E944341DC01CB019EAF25
:103830008DAF0FC089E190E09CAF8BAF8BAD9CAD9D
:103840000197F1F79CAF8BAF8DAD9EAD01979EAF09
:103850008DAF8DAD9EAD009769F716C0FE01FF9646
:1038600060817181828193810E944341DC01CB019F
:103870009EAF8DAF8DAD9EAD9AAF89AF89AD9AAD3C
:103880000197F1F79AAF89AF0E94DA2FA5E2B0E075
:10389000E5E2F0E080818F778C9381E080931806D9
:1038A000FE01E35BFF4F81E090E09183808328C0BD
:1038B000FE01E35BFF4F60817181FE01E35BFF4F1F
:1038C00080819181880F991FFC01E15EF94F408151
:1038D00051819E012D5A3F4FCB01880F991FF9014D
:1038E000E80FF91F51834083DE01A35BBF4FFE0148
:1038F000E35BFF4F80819181019611969C938E939B
:10390000FE01E35BFF4F808191818730910584F256
:10391000FE01EF5AFF4F80916E0690916F069183E2
:10392000808380E090E0AAEFB3E48DAB9EABAFABB9
:10393000B8AF6DA97EA98FA998AD20E030E04AE725
:1039400053E40E94E841DC01CB0189AB9AABABABFD
:10395000BCAB69A97AA98BA99CA920E030E040E81A
:103960005FE30E94D74088232CF481E090E098AB7D
:103970008FA73FC069A97AA98BA99CA920E03FEF36
:103980004FE757E40E94E44118164CF56DA97EA953
:103990008FA998AD20E030E040E251E40E94E84178
:1039A000DC01CB01BC01CD010E944341DC01CB0114
:1039B00098AB8FA70FC089E190E09EA78DA78DA53A
:1039C0009EA50197F1F79EA78DA78FA598A90197AE
:1039D00098AB8FA78FA598A9009769F714C069A91C
:1039E0007AA98BA99CA90E944341DC01CB0198AB29
:1039F0008FA78FA598A99CA78BA78BA59CA501979E
:103A0000F1F79CA78BA70E94A02E80E090E0A0E099
:103A1000B0E48FA398A7A9A7BAA76FA178A589A595
:103A20009AA520E030E04AE753E40E94E841DC0137
:103A3000CB018BA39CA3ADA3BEA36BA17CA18DA145
:103A40009EA120E030E040E85FE30E94D740882359
:103A50002CF481E090E09AA389A33FC06BA17CA1E4
:103A60008DA19EA120E03FEF4FE757E40E94E44183
:103A700018164CF56FA178A589A59AA520E030E02D
:103A800040E251E40E94E841DC01CB01BC01CD01E0
:103A90000E944341DC01CB019AA389A30FC089E1B5
:103AA00090E098A38F8F8F8D98A10197F1F798A33D
:103AB0008F8F89A19AA101979AA389A389A19AA11D
:103AC000009769F714C06BA17CA18DA19EA10E94F3
:103AD0004341DC01CB019AA389A389A19AA19E8FBE
:103AE0008D8F8D8D9E8D0197F1F79E8F8D8F0E940A
:103AF000DA2FA5E2B0E0E5E2F0E0808180688C9307
:103B000010921806FE01E55BFF4F81E090E0918383
:103B1000808328C0FE01E55BFF4F60817181FE015B
:103B2000E55BFF4F80819181880F991FFC01E15E69
:103B3000F94F408151819E012F593F4FCB01880F92
:103B4000991FF901E80FF91F51834083DE01A55B3E
:103B5000BF4FFE01E55BFF4F808191810196119679
:103B60009C938E93FE01E55BFF4F808191818730AE
:103B7000910584F2FE01E15BFF4F80916E0690910A
:103B80006F069183808380E090E0A8ECB2E4898F97
:103B90009A8FAB8FBC8F698D7A8D8B8D9C8D20E039
:103BA00030E04AE753E40E94E841DC01CB018D8B11
:103BB0009E8BAF8BB88F6D897E898F89988D20E021
:103BC00030E040E85FE30E94D74088232CF481E096
:103BD00090E09C8B8B8B3FC06D897E898F89988DFF
:103BE00020E03FEF4FE757E40E94E44118164CF500
:103BF000698D7A8D8B8D9C8D20E030E040E251E420
:103C00000E94E841DC01CB01BC01CD010E9443418F
:103C1000DC01CB019C8B8B8B0FC089E190E09A8BF0
:103C2000898B89899A890197F1F79A8B898B8B897E
:103C30009C8901979C8B8B8B8B899C89009769F75A
:103C400014C06D897E898F89988D0E944341DC0163
:103C5000CB019C8B8B8B8B899C89988B8F878F85D5
:103C600098890197F1F7988B8F870E94A02E80E0AA
:103C700090E0A0E0B0E48B879C87AD87BE876B8522
:103C80007C858D859E8520E030E04AE753E40E94E4
:103C9000E841DC01CB018F839887A987BA876F81C0
:103CA000788589859A8520E030E040E85FE30E94CE
:103CB000D74088232CF481E090E09E838D833FC021
:103CC0006F81788589859A8520E03FEF4FE757E43B
:103CD0000E94E44118164CF56B857C858D859E8588
:103CE00020E030E040E251E40E94E841DC01CB01F9
:103CF000BC01CD010E944341DC01CB019E838D8339
:103D00000FC089E190E09C838B838B819C8101971C
:103D1000F1F79C838B838D819E8101979E838D8398
:103D20008D819E81009769F714C06F8178858985A0
:103D30009A850E944341DC01CB019E838D838D8156
:103D40009E819A83898389819A810197F1F79A8369
:103D500089830E94DA2FFE01E75BFF4F81E090E04C
:103D6000918380833AC0FE01E75BFF4F60817181E0
:103D7000FE01E75BFF4F808191819E012D5A3F4FED
:103D8000880F991FF901E80FF91F20813181FE0189
:103D9000E75BFF4F80819181880F991FFC01E15EF5
:103DA000F94F80819181A901480F591F9E012D5A19
:103DB0003F4FCB01880F991FF901E80FF91F51837D
:103DC0004083DE01A75BBF4FFE01E75BFF4F8081B1
:103DD0009181019611969C938E93FE01E75BFF4FB4
:103DE00080819181873091050CF4BDCF20916E06C2
:103DF00030916F06DE01AF5ABF4FFE01EF5AFF4F01
:103E000080819181820F931F11969C938E93FE0166
:103E1000E95BFF4F81E090E0918380835BC0FE010E
:103E2000E95BFF4F00811181FE01E95BFF4F80815B
:103E300091819E012D5A3F4F880F991FF901E80F7C
:103E4000F91F80819181AC0156954795FE01E95B90
:103E5000FF4F808191819E012F593F4F880F991FFD
:103E6000F901E80FF91F808191819A01281B390B14
:103E700080E197E2289FA001299F500D389F500DA7
:103E80001124FE01EF5AFF4F808191819C013695EC
:103E90002795FE01E15BFF4F80819181281B390B43
:103EA000CA01B9010E947642CB019C01C801880F6A
:103EB000991FFC01E65AFA4F31832083DE01A95B8A
:103EC000BF4FFE01E95BFF4F808191810196119602
:103ED0009C938E93FE01E95BFF4F80819181873037
:103EE00091050CF49CCFF1E0E096FFAFE09703C0A2
:103EF000E0961FAEE097E0968FADE097C159DF4F97
:103F00000FB6F894DEBF0FBECDBFCF91DF911F91EA
:103F10000F910895DF93CF9300D0CDB7DEB781E046
:103F200090E09A8389830EC089819A81880F991FB6
:103F3000FC01E155FA4F1182108289819A81019624
:103F40009A83898389819A81873091056CF31092D5
:103F50007D0510927E0510927F05109280051092CB
:103F600042061092430610924406109245061092A3
:103F70001406109213060F900F90CF91DF910895C1
:103F8000AF92BF92CF92DF92EF92FF920F931F9367
:103F9000DF93CF93CDB7DEB76E970FB6F894DEBF41
:103FA0000FBECDBF1D82C0902106D0902206809109
:103FB0006E0690916F067C0100E010E080915C0538
:103FC00090915D059C0140E050E0C801B7010E945E
:103FD0004B42DC01CB0120E137E240E050E0BC0184
:103FE000CD010E949D42DA01C9019601281B390BBF
:103FF000C9019C8B8B8B2B893C8900D000D0EDB7FD
:10400000FEB731968EE691E09183808333832283DD
:104010000E94393D0F900F900F900F908B899C89D3
:104020009F878E878B899C899D878C878B899C89AC
:10403000CC01A0E0B0E08E839F83A887B98782E09F
:1040400090E09C838B83A0C0AB80BC808B819C81E3
:10405000880F991FFC01E15EF94FC080D1808091EB
:104060006E0690916F067C0100E010E08B819C81D0
:10407000880F991FFC01E65AFA4F808191819C01BB
:1040800040E050E0C801B7010E944B42DC01CB0187
:1040900020E137E240E050E0BC01CD010E949D42AA
:1040A000DA01C901A601481B590B9501220F331FE4
:1040B000CE010196820F931FFC01709651834083BD
:1040C0008B819C819C01220F331FCE010196820FB0
:1040D000931FFC017096208131818E859F85281762
:1040E000390780F48B819C819C01220F331FCE0104
:1040F0000196820F931FFC017096808191819F87AA
:104100008E8721C08B819C819C01220F331FCE01A1
:104110000196820F931FFC017096208131818C855E
:104120009D858217930778F48B819C819C01220FD7
:10413000331FCE010196820F931FFC017096808180
:1041400091819D878C878B819C819C01220F331FDD
:10415000CE010196820F931FFC01709680819181A0
:104160009C0140E050E08E819F81A885B985820F37
:10417000931FA41FB51F8E839F83A887B9878B8148
:104180009C8101969C838B838B819C8187309105D8
:104190000CF45ACF00D000D0EDB7FEB731968FE8BF
:1041A00091E0918380838E859F85938382830E9493
:1041B000393D0F900F900F900F9000D000D0EDB7C9
:1041C000FEB7319681EA91E0918380838C859D854D
:1041D000938382830E94393D0F900F900F900F9030
:1041E0002C853D858E859F85A901481B590BCA01E9
:1041F0008B30910508F494C08E819F81A885B98584
:1042000026E030E040E050E0BC01CD010E949D423C
:10421000DA01C9019B878A8781E090E09A838983CC
:1042200079C089819A81873091051CF481E0888B5F
:104230000FC089819A818D3091051CF482E0888BB2
:1042400007C089819A818331910514F483E0888BBA
:1042500089819A819C01220F331FCE010196820F22
:10426000931FFC017096208131818A859B8582177E
:10427000930790F489819A819C012150304081E01C
:1042800090E0022E02C0880F991F0A94E2F7982F3F
:104290008D81892B8D8312C089819A819C01215047
:1042A000304081E090E0022E02C0880F991F0A94EE
:1042B000E2F7982F90958D8189238D8389819A814A
:1042C0008630910551F089819A818C30910529F0D1
:1042D00089819A8182319105C1F488896D810E941A
:1042E000FC318D81282F30E000D000D0EDB7FEB733
:1042F000319683EB91E091838083338322830E9404
:10430000393D0F900F900F900F9089819A810196FF
:104310009A83898389819A81873091050CF481CFB2
:104320006E960FB6F894DEBF0FBECDBFCF91DF9172
:104330001F910F91FF90EF90DF90CF90BF90AF90C3
:104340000895AF92BF92CF92DF92EF92FF920F93B8
:104350001F93DF93CF93CDB7DEB760970FB6F89476
:10436000DEBF0FBECDBF81E090E09A838983A9C2F2
:10437000C980DA8089819A81880F991FFC01E15EEA
:10438000F94FA080B1808091DE059091DF059C01FE
:1043900040E050E080916E0690916F06CC01A0E065
:1043A000B0E079018A01E81AF90A0A0B1B0B89812E
:1043B0009A81880F991FFC01E65AFA4F80819181FA
:1043C0009C0140E050E0C801B7010E944B42DC0173
:1043D000CB0120E137E240E050E0BC01CD010E947A
:1043E000BF42DA01C901A501480F591F9601220FEA
:1043F000331FCE010196820F931FFC013296518329
:10440000408389819A819C01220F331FCE0101963E
:10441000820F931FFC013296808191812CE08439B8
:10442000920738F489819A81FC01E355F94F108293
:1044300043C289819A819C01220F331FCE010196CC
:10444000820F931FFC013296808191812DE0843D83
:104450009207E0F509811A8189819A819C01220FD6
:10446000331FCE010196820F931FFC01329680818B
:104470009181CC01A0E0B0E02BE030E040E050E0E2
:10448000BC01CD010E944B42DC01CB018C559A4806
:10449000A040B04024EF31E040E050E0BC01CD014D
:1044A0000E94BF42DA01C9010196A11DB11D22E09F
:1044B00030E040E050E0BC01CD010E94BF42DA0193
:1044C000C901F801E355F94F8083F6C189819A81CA
:1044D0009C01220F331FCE010196820F931FFC0116
:1044E0003296808191812EE08036920780F5098195
:1044F0001A8189819A819C01220F331FCE01019676
:10450000820F931FFC01329680819181CC01A0E043
:10451000B0E02DE130E040E050E0BC01CD010E9470
:104520004B42DC01CB0184509149A140B04028EEC0
:1045300033E040E050E0BC01CD010E94BF42DA010F
:10454000C9018C5FF801E355F94F8083B5C18981BA
:104550009A819C01220F331FCE010196820F931F77
:10456000FC013296808191812EE0883D920780F592
:1045700009811A8189819A819C01220F331FCE0102
:104580000196820F931FFC01329680819181CC01AC
:10459000A0E0B0E022E031E040E050E0BC01CD011D
:1045A0000E944B42DC01CB01805C9C47AE40B04096
:1045B00028EE33E040E050E0BC01CD010E94BF4254
:1045C000DA01C901885FF801E355F94F808374C1AE
:1045D00089819A819C01220F331FCE010196820F9F
:1045E000931FFC013296808191812FE088329207DF
:1045F00080F509811A8189819A819C01220F331FDC
:10460000CE010196820F931FFC0132968081918129
:10461000CC01A0E0B0E023E131E040E050E0BC019B
:10462000CD010E944B42DC01CB018850924FAF403C
:10463000B04028EE33E040E050E0BC01CD010E94E4
:10464000BF42DA01C901895DF801E355F94F808362
:1046500033C189819A819C01220F331FCE010196BB
:10466000820F931FFC013296808191812FE08C385C
:10467000920780F509811A8189819A819C01220F14
:10468000331FCE010196820F931FFC013296808169
:104690009181CC01A0E0B0E02EE630E040E050E0B7
:1046A000BC01CD010E944B42DC01CB0180539348F9
:1046B000A640B04028EE33E040E050E0BC01CD0120
:1046C0000E94BF42DA01C901835CF801E355F94F4A
:1046D0008083F2C089819A819C01220F331FCE0111
:1046E0000196820F931FFC013296808191812FE009
:1046F000843B920780F509811A8189819A819C0106
:10470000220F331FCE010196820F931FFC013296B8
:1047100080819181CC01A0E0B0E021EE30E040E06A
:1047200050E0BC01CD010E944B42DC01CB018C501A
:104730009A4AAD40B04028EE33E040E050E0BC0182
:10474000CD010E94BF42DA01C901885BF801E3553F
:10475000F94F8083B1C089819A819C01220F331F58
:10476000CE010196820F931FFC01329680819181C8
:104770002FE08C3D920780F509811A8189819A8109
:104780009C01220F331FCE010196820F931FFC0163
:10479000329680819181CC01A0E0B0E02BE430E042
:1047A00040E050E0BC01CD010E944B42DC01CB0156
:1047B0008C5B9949A440B04028EE33E040E050E0E3
:1047C000BC01CD010E94BF42DA01C9018F5AF80134
:1047D000E355F94F808370C089819A819C01220F33
:1047E000331FCE010196820F931FFC013296808108
:1047F00091812FE0803F920780F509811A8189819C
:104800009A819C01220F331FCE010196820F931FC4
:10481000FC01329680819181CC01A0E0B0E02CE2D5
:1048200031E040E050E0BC01CD010E944B42DC0190
:10483000CB01805D9549A241B04028EE33E040E0D5
:1048400050E0BC01CD010E94BF42DA01C9018C5A7F
:10485000F801E355F94F80832FC009811A818981BE
:104860009A819C01220F331FCE010196820F931F64
:10487000FC01329680819181CC01A0E0B0E023E57B
:1048800030E040E050E0BC01CD010E944B42DC0131
:10489000CB01805D9A42A540B04028EE33E040E075
:1048A00050E0BC01CD010E94BF42DA01C901865A25
:1048B000F801E355F94F808389819A8101969A83A3
:1048C000898389819A81873091050CF451CD1092AA
:1048D000590560960FB6F894DEBF0FBECDBFCF91DD
:1048E000DF911F910F91FF90EF90DF90CF90BF90DD
:1048F000AF9008950F931F93DF93CF93CDB7DEB79B
:10490000C854D0400FB6F894DEBF0FBECDBFA4E2AE
:10491000B0E0E4E2F0E0808187608C93ECE4F0E0CA
:1049200081E58083A5E2B0E0E5E2F0E080818E7F62
:104930008C93FE01EB5BFF4F80E090E0A0E8BFE3CB
:1049400080839183A283B3838E010F5B1F4FFE018F
:10495000EB5BFF4F60817181828193812BEA3AEAA0
:104960004AEA5EE30E94E841DC01CB01F801808362
:104970009183A283B383FE01EF5BFF4F608171815E
:104980008281938120E030E040E85FE30E94D740DD
:10499000882334F481E0FE01E05CFF4F80839DC0FA
:1049A000FE01EF5BFF4F608171818281938120E086
:1049B00030E04FE753E40E94E44118160CF07EC04B
:1049C000FE01EB5BFF4F608171818281938120E06A
:1049D00030E04AE754E40E94DB40DC01CB018CAFBD
:1049E0009DAFAEAFBFAF6CAD7DAD8EAD9FAD20E0E6
:1049F00030E04AE753E40E94E841DC01CB0188AF94
:104A000099AFAAAFBBAF68AD79AD8AAD9BAD20E0E1
:104A100030E040E85FE30E94D74088232CF481E037
:104A200090E09FAB8EAB3FC068AD79AD8AAD9BADDA
:104A300020E03FEF4FE757E40E94E44118164CF5A1
:104A40006CAD7DAD8EAD9FAD20E030E040E251E435
:104A50000E94E841DC01CB01BC01CD010E94434131
:104A6000DC01CB019FAB8EAB0FC089E190E09DAB29
:104A70008CAB8CA99DA90197F1F79DAB8CAB8EA94E
:104A80009FA901979FAB8EAB8EA99FA9009769F74D
:104A90002DC068AD79AD8AAD9BAD0E944341DC016C
:104AA000CB019FAB8EAB8EA99FA99BAB8AAB8AA98A
:104AB0009BA90197F1F79BAB8AAB18C0FE01EF5B96
:104AC000FF4F60817181828193810E944341DC01AB
:104AD000CB01FE01E05CFF4F8083FE01E05CFF4FF5
:104AE000808189AB89A98A95F1F789AB86E00E941C
:104AF0005D37A5E2B0E0E5E2F0E0808181608C9373
:104B000080E090E0A0E8BFE38DA79EA7AFA7B8AB79
:104B10006DA57EA58FA598A92BEA3AEA4AEA5EE33D
:104B20000E94E841DC01CB0189A79AA7ABA7BCA7EB
:104B300069A57AA58BA59CA520E030E040E85FE35D
:104B40000E94D74088231CF481E088A791C069A502
:104B50007AA58BA59CA520E030E04FE753E40E94A6
:104B6000E44118160CF07BC06DA57EA58FA598A911
:104B700020E030E04AE754E40E94DB40DC01CB0156
:104B80008CA39DA3AEA3BFA36CA17DA18EA19FA169
:104B900020E030E04AE753E40E94E841DC01CB0129
:104BA00088A399A3AAA3BBA368A179A18AA19BA169
:104BB00020E030E040E85FE30E94D74088232CF4F7
:104BC00081E090E09F8F8E8F3FC068A179A18AA17C
:104BD0009BA120E03FEF4FE757E40E94E441181605
:104BE0004CF56CA17DA18EA19FA120E030E040E2B8
:104BF00051E40E94E841DC01CB01BC01CD010E94DF
:104C00004341DC01CB019F8F8E8F0FC089E190E083
:104C10009D8F8C8F8C8D9D8D0197F1F79D8F8C8F43
:104C20008E8D9F8D01979F8F8E8F8E8D9F8D00977C
:104C300069F724C068A179A18AA19BA10E94434180
:104C4000DC01CB019F8F8E8F8E8D9F8D9B8F8A8FE6
:104C50008A8D9B8D0197F1F79B8F8A8F0FC069A575
:104C60007AA58BA59CA50E944341DC01CB0188A7B6
:104C700088A5898F898D8A95F1F7898FA5E2B0E0A3
:104C8000E5E2F0E080818E7F8C9386E00E945D37C4
:104C900080E00E945D37A5E2B0E0E5E2F0E08081CF
:104CA00081608C9380E090E0A0E8BFE38D8B9E8BC9
:104CB000AF8BB88F6D897E898F89988D2BEA3AEA00
:104CC0004AEA5EE30E94E841DC01CB01898B9A8BC2
:104CD000AB8BBC8B69897A898B899C8920E030E019
:104CE00040E85FE30E94D74088231CF481E0888B72
:104CF00091C069897A898B899C8920E030E04FE7EF
:104D000053E40E94E44118160CF07BC06D897E8943
:104D10008F89988D20E030E04AE754E40E94DB4020
:104D2000DC01CB018C879D87AE87BF876C857D8535
:104D30008E859F8520E030E04AE753E40E94E841F9
:104D4000DC01CB0188879987AA87BB87688579852D
:104D50008A859B8520E030E040E85FE30E94D740F1
:104D600088232CF481E090E09F838E833FC0688588
:104D700079858A859B8520E03FEF4FE757E40E94C5
:104D8000E44118164CF56C857D858E859F8520E065
:104D900030E040E251E40E94E841DC01CB01BC017B
:104DA000CD010E944341DC01CB019F838E830FC064
:104DB00089E190E09D838C838C819D810197F1F73F
:104DC0009D838C838E819F8101979F838E838E81AB
:104DD0009F81009769F724C0688579858A859B85BE
:104DE0000E944341DC01CB019F838E838E819F8192
:104DF0009B838A838A819B810197F1F79B838A83B6
:104E00000FC069897A898B899C890E944341DC01A2
:104E1000CB01888B8889898389818A95F1F7898379
:104E200060E070E080E090E042E00E94192880910C
:104E30002C05882F90E0382F222780912D05882F70
:104E400090E0820F931FAA2797FDA095BA2F809319
:104E5000D6059093D705A093D805B093D905209196
:104E6000D6053091D7054091D8055091D90500D08D
:104E700000D000D0EDB7FEB7319685EC91E091837C
:104E8000808322833383448355830E94393D8DB7C9
:104E90009EB706960FB6F8949EBF0FBE8DBF0E94B8
:104EA0005A2A8091D6059091D705A091D805B09146
:104EB000D9050197A109B1092091BF06222F30E041
:104EC00040E050E0BC01CD010E944B42DC01CB012F
:104ED0000396A11DB11D2091BF06BC01CD01422F3B
:104EE0000E94192880912C05882F90E0382F2227C6
:104EF00080912D05882F90E0820F931F9093E105FC
:104F00008093E0052091E0053091E10500D000D0CC
:104F1000EDB7FEB7319684ED91E0918380833383C2
:104F200022830E94393D0F900F900F900F90C85B25
:104F3000DF4F0FB6F894DEBF0FBECDBFCF91DF912C
:104F40001F910F910895DF93CF93CDB7DEB72C97C4
:104F50000FB6F894DEBF0FBECDBF6E837F83888708
:104F600099875B874A872C87ECE4F0E081E58083B2
:104F7000A5E2B0E0E5E2F0E080818E7F8C9386E0F0
:104F80000E945D37A5E2B0E0E5E2F0E0808181605B
:104F90008C93A5E2B0E0E5E2F0E080818E7F8C9317
:104FA0008E818B838E819F81A885B985892F9A2FC9
:104FB000AB2FBB278C838E819F81A885B985CD01BE
:104FC000AA27BB278D8382E00E945D378D810E94D6
:104FD0005D378C810E945D378B810E945D371A821C
:104FE00019820FC029813A818A859B85FC01E20FD5
:104FF000F31F80810E945D3789819A8101969A838F
:1050000089838C85282F30E089819A8182179307C4
:105010004CF3A5E2B0E0E5E2F0E0808181608C93A2
:105020002C960FB6F894DEBF0FBECDBFCF91DF91A7
:105030000895DF93CF93CDB7DEB72A970FB6F894D4
:10504000DEBF0FBECDBF6E837F83888799874A8777
:10505000ECE4F0E081E58083A5E2B0E0E5E2F0E099
:1050600080818E7F8C938E818B838E819F81A8859A
:10507000B985892F9A2FAB2FBB278C838E819F8177
:10508000A885B985CD01AA27BB278D8383E00E941F
:105090005D378D810E945D378C810E945D378B81E9
:1050A0000E945D371A82198211C080E00E945D372C
:1050B00089819A81EEE4F0E02081FC01E45DFA4F01
:1050C000208389819A8101969A8389838A85282FF2
:1050D00030E089819A81821793073CF3A5E2B0E022
:1050E000E5E2F0E0808181608C932A960FB6F89417
:1050F000DEBF0FBECDBFCF91DF910895DF93CF9379
:10510000CDB7DEB7ECE4F0E081E58083A5E2B0E066
:10511000E5E2F0E080818E7F8C9389EB0E945D3721
:10512000A5E2B0E0E5E2F0E0808181608C93CF9170
:10513000DF910895DF93CF9300D0CDB7DEB7809194
:10514000D6059091D705A091D805B091D905892FA2
:105150009A2FAB2FBB2789838091D6059091D705D5
:10516000A091D805B091D9058A8360E070E080E015
:1051700090E09E012F5F3F4FA90122E00E94A327EC
:105180000E945A2A8091BF06882F90E0A0E0B0E0EC
:105190002091D6053091D7054091D8055091D90579
:1051A000BC01CD010E944B42DC01CB010396A11D45
:1051B000B11DE091BF0628E736E0BC01CD01A90191
:1051C0002E2F0E94A3278091D6059091D705A091FC
:1051D000D805B091D9050196A11DB11D8093D605C2
:1051E0009093D705A093D805B093D9058091BF06B9
:1051F0000F900F90CF91DF910895DF93CF93CDB7AC
:10520000DEB72C970FB6F894DEBF0FBECDBF1C8261
:105210001B8234C18091BF06282F30E08B819C8196
:10522000AC01249FC001259F900D349F900D112447
:105230000396CC01A0E0B0E02091BF06BC01CD01F7
:10524000422F0E94192880912C05882F90E0382F3A
:10525000222780912D05882F90E0820F931F9C8735
:105260008B8700D000D0EDB7FEB7319681EE91E08C
:10527000918380838B859C85938382830E94393DB3
:105280000F900F900F900F9080912E05282F30E0F7
:1052900000D000D0EDB7FEB7319684EE91E0918357
:1052A0008083338322830E94393D0F900F900F90AB
:1052B0000F9083E0888781E090E09A83898334C0EF
:1052C0008885882F90E0FC01E45DFA4F8081882F6B
:1052D00090E0382F22278885882F90E00196FC01E6
:1052E000E45DFA4F8081882F90E0820F931F9A87A8
:1052F000898700D000D0EDB7FEB7319684EE91E0FB
:105300009183808389859A85938382830E94393D26
:105310000F900F900F900F9088858E5F88878981FE
:105320009A8101969A83898389819A818730910530
:105330003CF28885882F90E0FC01E45DFA4F808183
:10534000882F90E0382F22278885882F90E00196BB
:10535000FC01E45DFA4F8081882F90E0820F931F5B
:105360009E838D8300D000D0EDB7FEB7319688EED6
:1053700091E0918380838D819E81938382830E94BB
:10538000393D0F900F900F900F9088858E5F888722
:105390008885882F90E0FC01E45DFA4F8081282FFA
:1053A00030E000D000D0EDB7FEB7319688EE91E046
:1053B00091838083338322830E94393D0F900F9025
:1053C0000F900F9088858F5F88878885882F90E061
:1053D000FC01E45DFA4F8081282F30E000D000D03E
:1053E000EDB7FEB7319684EE91E0918380833383ED
:1053F00022830E94393D0F900F900F900F90888567
:105400008F5F88878885882F90E0FC01E45DFA4FE4
:105410008081282F30E000D000D0EDB7FEB7319664
:1054200084EE91E091838083338322830E94393D0F
:105430000F900F900F900F9088858F5F88878885D9
:10544000882F90E0FC01E45DFA4F8081282F30E046
:1054500000D000D0EDB7FEB731968CEE91E091838D
:105460008083338322830E94393D0F900F900F90E9
:105470000F908B819C8101969C838B838B819C8177
:105480009C0140E050E08091D6059091D705A09115
:10549000D805B091D905281739074A075B0708F4E2
:1054A000B9CE2C960FB6F894DEBF0FBECDBFCF910C
:1054B000DF910895EF92FF920F931F93DF93CF93A5
:1054C00000D000D00F92CDB7DEB71092BF0680910A
:1054D000E0059091E105892F9927809378068091C6
:1054E000BF068F5F8093BF068091E0059091E10534
:1054F000809379068091BF068F5F8093BF0686E018
:1055000080937A068091BF068F5F8093BF0683E009
:105510008D8381E090E09A83898337C08D81282F25
:1055200030E089819A81880F991FFC01E15EF94F73
:1055300080819181892F9927F901E858F94F80835B
:105540008091BF068F5F8093BF068D818F5F8D83B3
:105550008D81282F30E089819A81880F991FFC0165
:10556000E15EF94F80819181F901E858F94F80831C
:105570008091BF068F5F8093BF068D818F5F8D8383
:1055800089819A8101969A83898389819A8187305A
:10559000910524F28091DE059091DF059C0140E0A9
:1055A00050E080916E0690916F06CC01A0E0B0E0D3
:1055B00079018A01E81AF90A0A0B1B0BD801C70105
:1055C0002AE030E040E050E0BC01CD010E94BF4243
:1055D000DA01C9019C838B838D81282F30E08B8178
:1055E0009C81892F990F990BF901E858F94F808315
:1055F0008091BF068F5F8093BF068D818F5F8D8303
:105600008D81882F90E02B81FC01E858F94F208391
:105610008091BF068F5F8093BF068D818F5F8D83E2
:105620008D81282F30E080910D06F901E858F94F5F
:1056300080838091BF068F5F8093BF068D818F5FCF
:105640008D838D81882F90E02091AE06FC01E85873
:10565000F94F20838091BF068F5F8093BF068D81B5
:105660008F5F8D838D81882F90E0FC01E858F94F82
:1056700084E680838091BF068F5F8093BF068D8113
:105680008F5F8D838D81882F90E02091A905FC018B
:10569000E858F94F20838091BF068F5F8093BF0643
:1056A0000F900F900F900F900F90CF91DF911F915F
:1056B0000F91FF90EF900895DF93CF9300D000D02B
:1056C00000D0CDB7DEB78C836D834E831B828C8177
:1056D000880F8F5F8093E4058D818093E5058E812F
:1056E0008093E605A5E2B0E0E5E2F0E0808180622B
:1056F0008C9384EE95E063E00E94612E8B830E9480
:10570000DF35ECE4F0E087E580838091E4050E94DA
:105710005D37ECE4F0E087E5808381E090E09A83F8
:1057200089830DC089819A81FC01EC51FA4F8081F7
:105730000E945D3789819A8101969A838983898144
:105740009A818330910574F38B810E945D37ACE4BC
:10575000B0E0ECE4F0E080818F7B8C93A5E2B0E0D8
:10576000E5E2F0E080818F7D8C930E946C36269676
:105770000FB6F894DEBF0FBECDBFCF91DF91089575
:10578000DF93CF93CDB7DEB727970FB6F894DEBF80
:105790000FBECDBF8C836D834E831B82A5E2B0E02C
:1057A000E5E2F0E0808180628C930E94DF358C819D
:1057B000880F8093E4058D818093E5058E81809329
:1057C000E605ECE4F0E087E580838091E4050E9443
:1057D0005D37ECE4F0E087E5808381E090E09A8338
:1057E000898358C089819A81833091054CF48981DD
:1057F0009A81FC01EC51FA4F80810E945D3745C0CF
:1058000089819A818330910559F08E81882F90E0AB
:105810009C012D5F3F4F89819A8128173907D9F460
:10582000ECE4F0E087E5808380E00E945D378981C9
:105830009A810397EEE4F0E02081FC01EA5BF94FE6
:10584000208389819A81EEE4F0E02081FC01EC5113
:10585000FA4F20831AC0ECE4F0E087E5808380E013
:105860000E945D3789819A810397EEE4F0E0208100
:10587000FC01EA5BF94F208389819A81EEE4F0E034
:105880002081FC01EC51FA4F208389819A81019695
:105890009A8389838E81882F90E09C012C5F3F4FF3
:1058A00089819A81821793070CF49CCFACE4B0E015
:1058B000ECE4F0E080818F7B8C93A5E2B0E0E5E240
:1058C000F0E080818F7D8C930E946C368E81282F32
:1058D0002D5F84EE95E0622F0E94612E8B838E8176
:1058E000882F90E00396FC01EC51FA4F90818B8158
:1058F000981711F41F8202C081E08F838F81279651
:105900000FB6F894DEBF0FBECDBFCF91DF910895E3
:10591000DF93CF93CDB7DEB760970FB6F894DEBFB5
:105920000FBECDBF81E0888B1F868FE36CE345EA15
:105930000E945C2B80E090E0A0E2B1E48B879C8722
:10594000AD87BE876B857C858D859E8520E030E0A8
:105950004AE753E40E94E841DC01CB018F8398873A
:10596000A987BA876F81788589859A8520E030E09C
:1059700040E85FE30E94D74088232CF481E090E068
:105980009E838D833FC06F81788589859A8520E0CD
:105990003FEF4FE757E40E94E44118164CF56B8542
:1059A0007C858D859E8520E030E040E251E40E94B8
:1059B000E841DC01CB01BC01CD010E944341DC0187
:1059C000CB019E838D830FC089E190E09C838B8304
:1059D0008B819C810197F1F79C838B838D819E81C4
:1059E00001979E838D838D819E81009769F714C0F6
:1059F0006F81788589859A850E944341DC01CB01BE
:105A00009E838D838D819E819A83898389819A81EA
:105A10000197F1F79A83898380E06BE341E00E946C
:105A2000C02B888BF9CFDF93CF93CDB7DEB76E97BE
:105A30000FB6F894DEBF0FBECDBFA4E2B0E0E4E243
:105A4000F0E080818F6A8C93AAE2B0E0EAE2F0E0B5
:105A500080818C7F8C93A9E6B0E0E9E6F0E080815C
:105A60008F608C93ECE3F0E01082ADE3B0E0EDE307
:105A7000F0E0808183608C9310922B051E8E1D8E2A
:105A80000BC08D8D9E8DFC01EA5BF94F10828D8DD0
:105A90009E8D01969E8F8D8F8D8D9E8D8832910566
:105AA00084F3EDE4F0E010820E94882C8093E305FB
:105AB0000E94D6318FE363E342E30E945C2B81E0D6
:105AC00060E34DE30E945C2B80E090E0A0E8BFE340
:105AD000898F9A8FAB8FBC8F698D7A8D8B8D9C8DC2
